{
  "contractName": "Decentragram",
  "abi": [
    {
      "inputs": [],
      "payable": false,
      "stateMutability": "nonpayable",
      "type": "constructor"
    },
    {
      "anonymous": false,
      "inputs": [
        {
          "indexed": false,
          "internalType": "uint256",
          "name": "id",
          "type": "uint256"
        },
        {
          "indexed": false,
          "internalType": "string",
          "name": "hash",
          "type": "string"
        },
        {
          "indexed": false,
          "internalType": "string",
          "name": "description",
          "type": "string"
        },
        {
          "indexed": false,
          "internalType": "uint256",
          "name": "tipAmount",
          "type": "uint256"
        },
        {
          "indexed": false,
          "internalType": "address payable",
          "name": "author",
          "type": "address"
        },
        {
          "indexed": false,
          "internalType": "string",
          "name": "postType",
          "type": "string"
        },
        {
          "indexed": false,
          "internalType": "uint256",
          "name": "like",
          "type": "uint256"
        },
        {
          "indexed": false,
          "internalType": "bool",
          "name": "viewStatus",
          "type": "bool"
        }
      ],
      "name": "ImageCreated",
      "type": "event"
    },
    {
      "anonymous": false,
      "inputs": [
        {
          "indexed": false,
          "internalType": "uint256",
          "name": "id",
          "type": "uint256"
        },
        {
          "indexed": false,
          "internalType": "string",
          "name": "hash",
          "type": "string"
        },
        {
          "indexed": false,
          "internalType": "string",
          "name": "description",
          "type": "string"
        },
        {
          "indexed": false,
          "internalType": "uint256",
          "name": "tipAmount",
          "type": "uint256"
        },
        {
          "indexed": false,
          "internalType": "address payable",
          "name": "author",
          "type": "address"
        },
        {
          "indexed": false,
          "internalType": "string",
          "name": "postType",
          "type": "string"
        },
        {
          "indexed": false,
          "internalType": "uint256",
          "name": "like",
          "type": "uint256"
        },
        {
          "indexed": false,
          "internalType": "bool",
          "name": "viewStatus",
          "type": "bool"
        }
      ],
      "name": "ImageLiked",
      "type": "event"
    },
    {
      "anonymous": false,
      "inputs": [
        {
          "indexed": false,
          "internalType": "uint256",
          "name": "id",
          "type": "uint256"
        },
        {
          "indexed": false,
          "internalType": "string",
          "name": "hash",
          "type": "string"
        },
        {
          "indexed": false,
          "internalType": "string",
          "name": "description",
          "type": "string"
        },
        {
          "indexed": false,
          "internalType": "uint256",
          "name": "tipAmount",
          "type": "uint256"
        },
        {
          "indexed": false,
          "internalType": "address payable",
          "name": "author",
          "type": "address"
        },
        {
          "indexed": false,
          "internalType": "string",
          "name": "postType",
          "type": "string"
        },
        {
          "indexed": false,
          "internalType": "uint256",
          "name": "like",
          "type": "uint256"
        },
        {
          "indexed": false,
          "internalType": "bool",
          "name": "viewStatus",
          "type": "bool"
        }
      ],
      "name": "ImageTipped",
      "type": "event"
    },
    {
      "anonymous": false,
      "inputs": [
        {
          "indexed": false,
          "internalType": "uint256",
          "name": "id",
          "type": "uint256"
        },
        {
          "indexed": false,
          "internalType": "string",
          "name": "hash",
          "type": "string"
        },
        {
          "indexed": false,
          "internalType": "string",
          "name": "description",
          "type": "string"
        },
        {
          "indexed": false,
          "internalType": "uint256",
          "name": "tipAmount",
          "type": "uint256"
        },
        {
          "indexed": false,
          "internalType": "address payable",
          "name": "author",
          "type": "address"
        },
        {
          "indexed": false,
          "internalType": "string",
          "name": "postType",
          "type": "string"
        },
        {
          "indexed": false,
          "internalType": "uint256",
          "name": "like",
          "type": "uint256"
        },
        {
          "indexed": false,
          "internalType": "bool",
          "name": "viewStatus",
          "type": "bool"
        }
      ],
      "name": "ImageUnliked",
      "type": "event"
    },
    {
      "constant": true,
      "inputs": [
        {
          "internalType": "address",
          "name": "",
          "type": "address"
        }
      ],
      "name": "followCount",
      "outputs": [
        {
          "internalType": "uint256",
          "name": "",
          "type": "uint256"
        }
      ],
      "payable": false,
      "stateMutability": "view",
      "type": "function"
    },
    {
      "constant": true,
      "inputs": [
        {
          "internalType": "address",
          "name": "",
          "type": "address"
        },
        {
          "internalType": "uint256",
          "name": "",
          "type": "uint256"
        }
      ],
      "name": "followRegistry",
      "outputs": [
        {
          "internalType": "address",
          "name": "",
          "type": "address"
        }
      ],
      "payable": false,
      "stateMutability": "view",
      "type": "function"
    },
    {
      "constant": true,
      "inputs": [],
      "name": "imageCount",
      "outputs": [
        {
          "internalType": "uint256",
          "name": "",
          "type": "uint256"
        }
      ],
      "payable": false,
      "stateMutability": "view",
      "type": "function"
    },
    {
      "constant": true,
      "inputs": [
        {
          "internalType": "uint256",
          "name": "",
          "type": "uint256"
        }
      ],
      "name": "images",
      "outputs": [
        {
          "internalType": "uint256",
          "name": "id",
          "type": "uint256"
        },
        {
          "internalType": "string",
          "name": "hash",
          "type": "string"
        },
        {
          "internalType": "string",
          "name": "description",
          "type": "string"
        },
        {
          "internalType": "uint256",
          "name": "tipAmount",
          "type": "uint256"
        },
        {
          "internalType": "address payable",
          "name": "author",
          "type": "address"
        },
        {
          "internalType": "string",
          "name": "postType",
          "type": "string"
        },
        {
          "internalType": "uint256",
          "name": "like",
          "type": "uint256"
        },
        {
          "internalType": "bool",
          "name": "viewStatus",
          "type": "bool"
        }
      ],
      "payable": false,
      "stateMutability": "view",
      "type": "function"
    },
    {
      "constant": true,
      "inputs": [
        {
          "internalType": "address",
          "name": "",
          "type": "address"
        },
        {
          "internalType": "uint256",
          "name": "",
          "type": "uint256"
        }
      ],
      "name": "likeRegistry",
      "outputs": [
        {
          "internalType": "bool",
          "name": "",
          "type": "bool"
        }
      ],
      "payable": false,
      "stateMutability": "view",
      "type": "function"
    },
    {
      "constant": true,
      "inputs": [],
      "name": "name",
      "outputs": [
        {
          "internalType": "string",
          "name": "",
          "type": "string"
        }
      ],
      "payable": false,
      "stateMutability": "view",
      "type": "function"
    },
    {
      "constant": false,
      "inputs": [
        {
          "internalType": "string",
          "name": "_imgHash",
          "type": "string"
        },
        {
          "internalType": "string",
          "name": "_description",
          "type": "string"
        },
        {
          "internalType": "string",
          "name": "_type",
          "type": "string"
        }
      ],
      "name": "uploadImage",
      "outputs": [],
      "payable": false,
      "stateMutability": "nonpayable",
      "type": "function"
    },
    {
      "constant": false,
      "inputs": [
        {
          "internalType": "uint256",
          "name": "_id",
          "type": "uint256"
        }
      ],
      "name": "tipImageOwner",
      "outputs": [],
      "payable": true,
      "stateMutability": "payable",
      "type": "function"
    },
    {
      "constant": false,
      "inputs": [
        {
          "internalType": "uint256",
          "name": "_id",
          "type": "uint256"
        }
      ],
      "name": "likeImage",
      "outputs": [],
      "payable": false,
      "stateMutability": "nonpayable",
      "type": "function"
    },
    {
      "constant": false,
      "inputs": [
        {
          "internalType": "uint256",
          "name": "_id",
          "type": "uint256"
        }
      ],
      "name": "unlikeImage",
      "outputs": [],
      "payable": false,
      "stateMutability": "nonpayable",
      "type": "function"
    },
    {
      "constant": false,
      "inputs": [
        {
          "internalType": "uint256",
          "name": "_id",
          "type": "uint256"
        }
      ],
      "name": "privateImage",
      "outputs": [],
      "payable": false,
      "stateMutability": "nonpayable",
      "type": "function"
    },
    {
      "constant": false,
      "inputs": [
        {
          "internalType": "address payable",
          "name": "_follow",
          "type": "address"
        }
      ],
      "name": "follow",
      "outputs": [],
      "payable": false,
      "stateMutability": "nonpayable",
      "type": "function"
    }
  ],
  "bytecode": "0x608060405260006001553480156200001657600080fd5b506040518060400160405280600c81526020017f446563656e7472616772616d000000000000000000000000000000000000000081525060009080519060200190620000649291906200006b565b506200011a565b828054600181600116156101000203166002900490600052602060002090601f016020900481019282601f10620000ae57805160ff1916838001178555620000df565b82800160010185558215620000df579182015b82811115620000de578251825591602001919060010190620000c1565b5b509050620000ee9190620000f2565b5090565b6200011791905b8082111562000113576000816000905550600101620000f9565b5090565b90565b612925806200012a6000396000f3fe6080604052600436106100a75760003560e01c80638485648211610064578063848564821461033b5780638567ade81461051a57806392053b6314610548578063c9994b0714610573578063cec23a47146105ae578063f0e2e50b146107a4576100a7565b806306fdde03146100ac57806328c572871461013c5780634a24df23146101af5780634dbf27cc1461024a5780634f9f9c961461029b5780637fbcb78514610300575b600080fd5b3480156100b857600080fd5b506100c16107df565b6040518080602001828103825283818151815260200191508051906020019080838360005b838110156101015780820151818401526020810190506100e6565b50505050905090810190601f16801561012e5780820380516001836020036101000a031916815260200191505b509250505060405180910390f35b34801561014857600080fd5b506101956004803603604081101561015f57600080fd5b81019080803573ffffffffffffffffffffffffffffffffffffffff1690602001909291908035906020019092919050505061087d565b604051808215151515815260200191505060405180910390f35b3480156101bb57600080fd5b50610208600480360360408110156101d257600080fd5b81019080803573ffffffffffffffffffffffffffffffffffffffff169060200190929190803590602001909291905050506108ac565b604051808273ffffffffffffffffffffffffffffffffffffffff1673ffffffffffffffffffffffffffffffffffffffff16815260200191505060405180910390f35b34801561025657600080fd5b506102996004803603602081101561026d57600080fd5b81019080803573ffffffffffffffffffffffffffffffffffffffff1690602001909291905050506108ee565b005b3480156102a757600080fd5b506102ea600480360360208110156102be57600080fd5b81019080803573ffffffffffffffffffffffffffffffffffffffff169060200190929190505050610b81565b6040518082815260200191505060405180910390f35b34801561030c57600080fd5b506103396004803603602081101561032357600080fd5b8101908080359060200190929190505050610b99565b005b34801561034757600080fd5b506103746004803603602081101561035e57600080fd5b8101908080359060200190929190505050611027565b6040518089815260200180602001806020018881526020018773ffffffffffffffffffffffffffffffffffffffff1673ffffffffffffffffffffffffffffffffffffffff168152602001806020018681526020018515151515815260200184810384528b818151815260200191508051906020019080838360005b8381101561040a5780820151818401526020810190506103ef565b50505050905090810190601f1680156104375780820380516001836020036101000a031916815260200191505b5084810383528a818151815260200191508051906020019080838360005b83811015610470578082015181840152602081019050610455565b50505050905090810190601f16801561049d5780820380516001836020036101000a031916815260200191505b50848103825287818151815260200191508051906020019080838360005b838110156104d65780820151818401526020810190506104bb565b50505050905090810190601f1680156105035780820380516001836020036101000a031916815260200191505b509b50505050505050505050505060405180910390f35b6105466004803603602081101561053057600080fd5b8101908080359060200190929190505050611264565b005b34801561055457600080fd5b5061055d61185b565b6040518082815260200191505060405180910390f35b34801561057f57600080fd5b506105ac6004803603602081101561059657600080fd5b8101908080359060200190929190505050611861565b005b3480156105ba57600080fd5b506107a2600480360360608110156105d157600080fd5b81019080803590602001906401000000008111156105ee57600080fd5b82018360208201111561060057600080fd5b8035906020019184600183028401116401000000008311171561062257600080fd5b91908080601f016020809104026020016040519081016040528093929190818152602001838380828437600081840152601f19601f8201169050808301925050505050505091929192908035906020019064010000000081111561068557600080fd5b82018360208201111561069757600080fd5b803590602001918460018302840111640100000000831117156106b957600080fd5b91908080601f016020809104026020016040519081016040528093929190818152602001838380828437600081840152601f19601f8201169050808301925050505050505091929192908035906020019064010000000081111561071c57600080fd5b82018360208201111561072e57600080fd5b8035906020019184600183028401116401000000008311171561075057600080fd5b91908080601f016020809104026020016040519081016040528093929190818152602001838380828437600081840152601f19601f820116905080830192505050505050509192919290505050611f4e565b005b3480156107b057600080fd5b506107dd600480360360208110156107c757600080fd5b81019080803590602001909291905050506122e7565b005b60008054600181600116156101000203166002900480601f0160208091040260200160405190810160405280929190818152602001828054600181600116156101000203166002900480156108755780601f1061084a57610100808354040283529160200191610875565b820191906000526020600020905b81548152906001019060200180831161085857829003601f168201915b505050505081565b60046020528160005260406000206020528060005260406000206000915091509054906101000a900460ff1681565b60056020528160005260406000206020528060005260406000206000915091509054906101000a900473ffffffffffffffffffffffffffffffffffffffff1681565b60003390506000600190505b600260008373ffffffffffffffffffffffffffffffffffffffff1673ffffffffffffffffffffffffffffffffffffffff168152602001908152602001600020548111610a5f578273ffffffffffffffffffffffffffffffffffffffff16600560008473ffffffffffffffffffffffffffffffffffffffff1673ffffffffffffffffffffffffffffffffffffffff168152602001908152602001600020600083815260200190815260200160002060009054906101000a900473ffffffffffffffffffffffffffffffffffffffff1673ffffffffffffffffffffffffffffffffffffffff161415610a52576040517f08c379a00000000000000000000000000000000000000000000000000000000081526004018080602001828103825260208152602001807f466f6c6c6f7765722068617320666f6c6c6f772074686973206164647265737381525060200191505060405180910390fd5b80806001019150506108fa565b50600260008273ffffffffffffffffffffffffffffffffffffffff1673ffffffffffffffffffffffffffffffffffffffff1681526020019081526020016000206000815480929190600101919050555081600560008373ffffffffffffffffffffffffffffffffffffffff1673ffffffffffffffffffffffffffffffffffffffff1681526020019081526020016000206000600260008573ffffffffffffffffffffffffffffffffffffffff1673ffffffffffffffffffffffffffffffffffffffff16815260200190815260200160002054815260200190815260200160002060006101000a81548173ffffffffffffffffffffffffffffffffffffffff021916908373ffffffffffffffffffffffffffffffffffffffff1602179055505050565b60026020528060005260406000206000915090505481565b600081118015610bab57506001548111155b610bb457600080fd5b610bbc6127ee565b600360008381526020019081526020016000206040518061010001604052908160008201548152602001600182018054600181600116156101000203166002900480601f016020809104026020016040519081016040528092919081815260200182805460018160011615610100020316600290048015610c7e5780601f10610c5357610100808354040283529160200191610c7e565b820191906000526020600020905b815481529060010190602001808311610c6157829003601f168201915b50505050508152602001600282018054600181600116156101000203166002900480601f016020809104026020016040519081016040528092919081815260200182805460018160011615610100020316600290048015610d205780601f10610cf557610100808354040283529160200191610d20565b820191906000526020600020905b815481529060010190602001808311610d0357829003601f168201915b50505050508152602001600382015481526020016004820160009054906101000a900473ffffffffffffffffffffffffffffffffffffffff1673ffffffffffffffffffffffffffffffffffffffff1673ffffffffffffffffffffffffffffffffffffffff168152602001600582018054600181600116156101000203166002900480601f016020809104026020016040519081016040528092919081815260200182805460018160011615610100020316600290048015610e225780601f10610df757610100808354040283529160200191610e22565b820191906000526020600020905b815481529060010190602001808311610e0557829003601f168201915b50505050508152602001600682015481526020016007820160009054906101000a900460ff16151515158152505090503373ffffffffffffffffffffffffffffffffffffffff16816080015173ffffffffffffffffffffffffffffffffffffffff1614610ef7576040517f08c379a00000000000000000000000000000000000000000000000000000000081526004018080602001828103825260118152602001807f5065726d697373696f6e2064656e69656400000000000000000000000000000081525060200191505060405180910390fd5b600115158160e0015115151415610f1e5760008160e0019015159081151581525050610f30565b60018160e00190151590811515815250505b8060036000848152602001908152602001600020600082015181600001556020820151816001019080519060200190610f6a92919061284b565b506040820151816002019080519060200190610f8792919061284b565b506060820151816003015560808201518160040160006101000a81548173ffffffffffffffffffffffffffffffffffffffff021916908373ffffffffffffffffffffffffffffffffffffffff16021790555060a0820151816005019080519060200190610ff592919061284b565b5060c0820151816006015560e08201518160070160006101000a81548160ff0219169083151502179055509050505050565b6003602052806000526040600020600091509050806000015490806001018054600181600116156101000203166002900480601f0160208091040260200160405190810160405280929190818152602001828054600181600116156101000203166002900480156110d95780601f106110ae576101008083540402835291602001916110d9565b820191906000526020600020905b8154815290600101906020018083116110bc57829003601f168201915b505050505090806002018054600181600116156101000203166002900480601f0160208091040260200160405190810160405280929190818152602001828054600181600116156101000203166002900480156111775780601f1061114c57610100808354040283529160200191611177565b820191906000526020600020905b81548152906001019060200180831161115a57829003601f168201915b5050505050908060030154908060040160009054906101000a900473ffffffffffffffffffffffffffffffffffffffff1690806005018054600181600116156101000203166002900480601f0160208091040260200160405190810160405280929190818152602001828054600181600116156101000203166002900480156112415780601f1061121657610100808354040283529160200191611241565b820191906000526020600020905b81548152906001019060200180831161122457829003601f168201915b5050505050908060060154908060070160009054906101000a900460ff16905088565b60008111801561127657506001548111155b61127f57600080fd5b6112876127ee565b600360008381526020019081526020016000206040518061010001604052908160008201548152602001600182018054600181600116156101000203166002900480601f0160208091040260200160405190810160405280929190818152602001828054600181600116156101000203166002900480156113495780601f1061131e57610100808354040283529160200191611349565b820191906000526020600020905b81548152906001019060200180831161132c57829003601f168201915b50505050508152602001600282018054600181600116156101000203166002900480601f0160208091040260200160405190810160405280929190818152602001828054600181600116156101000203166002900480156113eb5780601f106113c0576101008083540402835291602001916113eb565b820191906000526020600020905b8154815290600101906020018083116113ce57829003601f168201915b50505050508152602001600382015481526020016004820160009054906101000a900473ffffffffffffffffffffffffffffffffffffffff1673ffffffffffffffffffffffffffffffffffffffff1673ffffffffffffffffffffffffffffffffffffffff168152602001600582018054600181600116156101000203166002900480601f0160208091040260200160405190810160405280929190818152602001828054600181600116156101000203166002900480156114ed5780601f106114c2576101008083540402835291602001916114ed565b820191906000526020600020905b8154815290600101906020018083116114d057829003601f168201915b50505050508152602001600682015481526020016007820160009054906101000a900460ff16151515158152505090506000816080015190508073ffffffffffffffffffffffffffffffffffffffff166108fc349081150290604051600060405180830381858888f1935050505015801561156c573d6000803e3d6000fd5b503482606001510182606001818152505081600360008581526020019081526020016000206000820151816000015560208201518160010190805190602001906115b792919061284b565b5060408201518160020190805190602001906115d492919061284b565b506060820151816003015560808201518160040160006101000a81548173ffffffffffffffffffffffffffffffffffffffff021916908373ffffffffffffffffffffffffffffffffffffffff16021790555060a082015181600501908051906020019061164292919061284b565b5060c0820151816006015560e08201518160070160006101000a81548160ff0219169083151502179055509050507f31e1bdbaf7cef616e18837f25dd34c4d7bff8f3da9d4b9eadc468841bad07feb83836020015184604001518560600151858760a001518860c001518960e001516040518089815260200180602001806020018881526020018773ffffffffffffffffffffffffffffffffffffffff1673ffffffffffffffffffffffffffffffffffffffff168152602001806020018681526020018515151515815260200184810384528b818151815260200191508051906020019080838360005b8381101561174757808201518184015260208101905061172c565b50505050905090810190601f1680156117745780820380516001836020036101000a031916815260200191505b5084810383528a818151815260200191508051906020019080838360005b838110156117ad578082015181840152602081019050611792565b50505050905090810190601f1680156117da5780820380516001836020036101000a031916815260200191505b50848103825287818151815260200191508051906020019080838360005b838110156118135780820151818401526020810190506117f8565b50505050905090810190601f1680156118405780820380516001836020036101000a031916815260200191505b509b50505050505050505050505060405180910390a1505050565b60015481565b60008111801561187357506001548111155b61187c57600080fd5b6118846127ee565b600360008381526020019081526020016000206040518061010001604052908160008201548152602001600182018054600181600116156101000203166002900480601f0160208091040260200160405190810160405280929190818152602001828054600181600116156101000203166002900480156119465780601f1061191b57610100808354040283529160200191611946565b820191906000526020600020905b81548152906001019060200180831161192957829003601f168201915b50505050508152602001600282018054600181600116156101000203166002900480601f0160208091040260200160405190810160405280929190818152602001828054600181600116156101000203166002900480156119e85780601f106119bd576101008083540402835291602001916119e8565b820191906000526020600020905b8154815290600101906020018083116119cb57829003601f168201915b50505050508152602001600382015481526020016004820160009054906101000a900473ffffffffffffffffffffffffffffffffffffffff1673ffffffffffffffffffffffffffffffffffffffff1673ffffffffffffffffffffffffffffffffffffffff168152602001600582018054600181600116156101000203166002900480601f016020809104026020016040519081016040528092919081815260200182805460018160011615610100020316600290048015611aea5780601f10611abf57610100808354040283529160200191611aea565b820191906000526020600020905b815481529060010190602001808311611acd57829003601f168201915b50505050508152602001600682015481526020016007820160009054906101000a900460ff1615151515815250509050600033905060011515600460008373ffffffffffffffffffffffffffffffffffffffff1673ffffffffffffffffffffffffffffffffffffffff168152602001908152602001600020600085815260200190815260200160002060009054906101000a900460ff16151514611bf6576040517f08c379a000000000000000000000000000000000000000000000000000000000815260040180806020018281038252601c8152602001807f566f74657220686173206e6f74206c696b65207468697320706f73740000000081525060200191505060405180910390fd5b60018260c00151038260c00181815250506000600460008373ffffffffffffffffffffffffffffffffffffffff1673ffffffffffffffffffffffffffffffffffffffff168152602001908152602001600020600085815260200190815260200160002060006101000a81548160ff0219169083151502179055508160036000858152602001908152602001600020600082015181600001556020820151816001019080519060200190611caa92919061284b565b506040820151816002019080519060200190611cc792919061284b565b506060820151816003015560808201518160040160006101000a81548173ffffffffffffffffffffffffffffffffffffffff021916908373ffffffffffffffffffffffffffffffffffffffff16021790555060a0820151816005019080519060200190611d3592919061284b565b5060c0820151816006015560e08201518160070160006101000a81548160ff0219169083151502179055509050507fa18c7f26023ec929879afc3211864632d7fa79597dea230ee7d5e4e8444d80b683836020015184604001518560600151338760a001518860c001518960e001516040518089815260200180602001806020018881526020018773ffffffffffffffffffffffffffffffffffffffff1673ffffffffffffffffffffffffffffffffffffffff168152602001806020018681526020018515151515815260200184810384528b818151815260200191508051906020019080838360005b83811015611e3a578082015181840152602081019050611e1f565b50505050905090810190601f168015611e675780820380516001836020036101000a031916815260200191505b5084810383528a818151815260200191508051906020019080838360005b83811015611ea0578082015181840152602081019050611e85565b50505050905090810190601f168015611ecd5780820380516001836020036101000a031916815260200191505b50848103825287818151815260200191508051906020019080838360005b83811015611f06578082015181840152602081019050611eeb565b50505050905090810190601f168015611f335780820380516001836020036101000a031916815260200191505b509b50505050505050505050505060405180910390a1505050565b6000835111611f5c57600080fd5b6000825111611f6a57600080fd5b6000815111611f7857600080fd5b600073ffffffffffffffffffffffffffffffffffffffff163373ffffffffffffffffffffffffffffffffffffffff161415611fb257600080fd5b6001600081548092919060010191905055506040518061010001604052806001548152602001848152602001838152602001600081526020013373ffffffffffffffffffffffffffffffffffffffff168152602001828152602001600081526020016001151581525060036000600154815260200190815260200160002060008201518160000155602082015181600101908051906020019061205692919061284b565b50604082015181600201908051906020019061207392919061284b565b506060820151816003015560808201518160040160006101000a81548173ffffffffffffffffffffffffffffffffffffffff021916908373ffffffffffffffffffffffffffffffffffffffff16021790555060a08201518160050190805190602001906120e192919061284b565b5060c0820151816006015560e08201518160070160006101000a81548160ff0219169083151502179055509050507f66d82a844f6b30b44712ec59a2bb82bbfadd9a7b47c028f09f5b66589e9b7e89600154848460003386600060016040518089815260200180602001806020018881526020018773ffffffffffffffffffffffffffffffffffffffff1673ffffffffffffffffffffffffffffffffffffffff168152602001806020018681526020018515151515815260200184810384528b818151815260200191508051906020019080838360005b838110156121d35780820151818401526020810190506121b8565b50505050905090810190601f1680156122005780820380516001836020036101000a031916815260200191505b5084810383528a818151815260200191508051906020019080838360005b8381101561223957808201518184015260208101905061221e565b50505050905090810190601f1680156122665780820380516001836020036101000a031916815260200191505b50848103825287818151815260200191508051906020019080838360005b8381101561229f578082015181840152602081019050612284565b50505050905090810190601f1680156122cc5780820380516001836020036101000a031916815260200191505b509b50505050505050505050505060405180910390a1505050565b6000811180156122f957506001548111155b61230257600080fd5b61230a6127ee565b600360008381526020019081526020016000206040518061010001604052908160008201548152602001600182018054600181600116156101000203166002900480601f0160208091040260200160405190810160405280929190818152602001828054600181600116156101000203166002900480156123cc5780601f106123a1576101008083540402835291602001916123cc565b820191906000526020600020905b8154815290600101906020018083116123af57829003601f168201915b50505050508152602001600282018054600181600116156101000203166002900480601f01602080910402602001604051908101604052809291908181526020018280546001816001161561010002031660029004801561246e5780601f106124435761010080835404028352916020019161246e565b820191906000526020600020905b81548152906001019060200180831161245157829003601f168201915b50505050508152602001600382015481526020016004820160009054906101000a900473ffffffffffffffffffffffffffffffffffffffff1673ffffffffffffffffffffffffffffffffffffffff1673ffffffffffffffffffffffffffffffffffffffff168152602001600582018054600181600116156101000203166002900480601f0160208091040260200160405190810160405280929190818152602001828054600181600116156101000203166002900480156125705780601f1061254557610100808354040283529160200191612570565b820191906000526020600020905b81548152906001019060200180831161255357829003601f168201915b50505050508152602001600682015481526020016007820160009054906101000a900460ff1615151515815250509050600033905060001515600460008373ffffffffffffffffffffffffffffffffffffffff1673ffffffffffffffffffffffffffffffffffffffff168152602001908152602001600020600085815260200190815260200160002060009054906101000a900460ff1615151461267c576040517f08c379a00000000000000000000000000000000000000000000000000000000081526004018080602001828103825260188152602001807f566f74657220686173206c696b65207468697320706f7374000000000000000081525060200191505060405180910390fd5b60018260c00151018260c00181815250506001600460008373ffffffffffffffffffffffffffffffffffffffff1673ffffffffffffffffffffffffffffffffffffffff168152602001908152602001600020600085815260200190815260200160002060006101000a81548160ff021916908315150217905550816003600085815260200190815260200160002060008201518160000155602082015181600101908051906020019061273092919061284b565b50604082015181600201908051906020019061274d92919061284b565b506060820151816003015560808201518160040160006101000a81548173ffffffffffffffffffffffffffffffffffffffff021916908373ffffffffffffffffffffffffffffffffffffffff16021790555060a08201518160050190805190602001906127bb92919061284b565b5060c0820151816006015560e08201518160070160006101000a81548160ff021916908315150217905550905050505050565b60405180610100016040528060008152602001606081526020016060815260200160008152602001600073ffffffffffffffffffffffffffffffffffffffff16815260200160608152602001600081526020016000151581525090565b828054600181600116156101000203166002900490600052602060002090601f016020900481019282601f1061288c57805160ff19168380011785556128ba565b828001600101855582156128ba579182015b828111156128b957825182559160200191906001019061289e565b5b5090506128c791906128cb565b5090565b6128ed91905b808211156128e95760008160009055506001016128d1565b5090565b9056fea265627a7a7231582035ec7ae390b6a0c1bc9690cc1e87fdb94520a16bf4b4ccacd05398e2c4e8f21c64736f6c63430005100032",
  "source": "pragma solidity ^0.5.0;\n\ncontract Decentragram {\n  string public name;\n  uint public imageCount = 0;\n  mapping(address => uint) public followCount;\n  mapping(uint => Image) public images;\n  mapping(address => mapping(uint => bool)) public likeRegistry;\n  mapping(address => mapping(uint => address)) public followRegistry;\n\n  struct Image {\n    uint id;\n    string hash;\n    string description;\n    uint tipAmount;\n    address payable author;\n    string postType;\n    uint like;\n    bool viewStatus;\n  }\n\n  event ImageCreated(\n    uint id,\n    string hash,\n    string description,\n    uint tipAmount,\n    address payable author,\n    string postType,\n    uint like,\n    bool viewStatus\n  );\n\n  event ImageTipped(\n    uint id,\n    string hash,\n    string description,\n    uint tipAmount,\n    address payable author,\n    string postType,\n    uint like,\n    bool viewStatus\n  );\n\n  event ImageLiked(\n    uint id,\n    string hash,\n    string description,\n    uint tipAmount,\n    address payable author,\n    string postType,\n    uint like,\n    bool viewStatus\n  );\n\n  event ImageUnliked(\n    uint id,\n    string hash,\n    string description,\n    uint tipAmount,\n    address payable author,\n    string postType,\n    uint like,\n    bool viewStatus\n  );\n\n  constructor() public {\n    name = \"Decentragram\";\n  }\n\n  function uploadImage(string memory _imgHash, string memory _description,string memory _type) public {\n    // Make sure the image hash exists\n    require(bytes(_imgHash).length > 0);\n    // Make sure image description exists\n    require(bytes(_description).length > 0);\n    // Make sure post type exists\n    require(bytes(_type).length > 0);\n    // Make sure uploader address exists\n    require(msg.sender!=address(0));\n\n    // Increment image id\n    imageCount ++;\n\n    // Add Image to the contract\n    images[imageCount] = Image(imageCount, _imgHash, _description, 0, msg.sender, _type, 0, true);\n    // Trigger an event\n    emit ImageCreated(imageCount, _imgHash, _description, 0, msg.sender, _type, 0, true);\n  }\n\n  function tipImageOwner(uint _id) public payable {\n    // Make sure the id is valid\n    require(_id > 0 && _id <= imageCount);\n    // Fetch the image\n    Image memory _image = images[_id];\n    // Fetch the author\n    address payable _author = _image.author;\n    // Pay the author by sending them Ether\n    address(_author).transfer(msg.value);\n    // Increment the tip amount\n    _image.tipAmount = _image.tipAmount + msg.value;\n    // Update the image\n    images[_id] = _image;\n    // Trigger an event\n    emit ImageTipped(_id, _image.hash, _image.description, _image.tipAmount, _author, _image.postType, _image.like, _image.viewStatus);\n  }\n\n  function likeImage(uint _id) public {\n    require(_id > 0 && _id <= imageCount);\n    Image memory _image = images[_id];\n    address _voter = msg.sender;\n    require (likeRegistry[_voter][_id] == false, \"Voter has like this post\");\n    // Increment the like amount\n    _image.like = _image.like + 1;\n    likeRegistry[_voter][_id] = true;\n    // Update the image\n    images[_id] = _image;\n    // Trigger an event\n    //emit ImageLiked(_id, _image.hash, _image.description, _image.tipAmount, msg.sender, _image.postType, _image.like);\n  }\n\n  function unlikeImage(uint _id) public {\n    // Make sure the id is valid\n    require(_id > 0 && _id <= imageCount);\n    // Fetch the image\n    Image memory _image = images[_id];\n    //Address of voter\n    address _voter = msg.sender;\n    require (likeRegistry[_voter][_id] == true, \"Voter has not like this post\");\n    // Increment the like amount\n    _image.like = _image.like - 1;\n    likeRegistry[_voter][_id] = false;\n    // Update the image\n    images[_id] = _image;\n    // Trigger an event\n    emit ImageUnliked(_id, _image.hash, _image.description, _image.tipAmount, msg.sender, _image.postType, _image.like, _image.viewStatus);\n  }\n\n  function privateImage(uint _id) public {\n    require(_id > 0 && _id <= imageCount);\n    Image memory _image = images[_id];\n    // Private image\n    require(_image.author == msg.sender, \"Permission denied\");\n    if(_image.viewStatus == true){\n      _image.viewStatus = false;\n    }else{\n      _image.viewStatus = true;\n    }\n    // Update the image\n    images[_id] = _image;\n  }\n\n  function follow(address payable _follow) public {\n    address _follower = msg.sender;\n    for(uint i = 1; i <= followCount[_follower]; i++){\n      require (followRegistry[_follower][i] != _follow, \"Follower has follow this address\");\n    }\n    followCount[_follower]++;\n    followRegistry[_follower][followCount[_follower]] = _follow;\n  }\n}\n",
  "sourcePath": "/home/tuanla/GR1/decentragram/src/contracts/Decentragram.sol",
  "compiler": {
    "name": "solc",
    "version": "0.5.16+commit.9c3226ce.Emscripten.clang"
  },
  "schemaVersion": "3.4.1",
  "updatedAt": "2022-06-01T11:11:27.653Z",
  "networkType": "ethereum",
  "devdoc": {
    "methods": {}
  },
  "userdoc": {
    "methods": {}
  }
}